:020000040800F2
:1000000000400020C1110008051200080512000878
:1000100000000000000000000000000000000000E0
:1000200000000000000000000000000005120008B1
:100030000000000000000000051200080512000882
:100040000512000805120008051200080512000834
:100050000512000805120008051200080512000824
:100060000512000805120008051200080512000814
:100070000512000805120008051200080512000804
:1000800005120008051200080512000805120008F4
:1000900005120008051200080512000805120008E4
:1000A00005120008051200080512000805120008D4
:1000B00005120008051200080512000805120008C4
:1000C0005FF808F1544A38B553680C21041C0B4002
:1000D000042B01D000D96DE0504820604E4B5D6884
:1000E00029060A0F4E49051C8A5CD54065602A1C0A
:1000F0005D686D056D0F495DCA40A2601D6BED0521
:1001000020D4484BE36044490D6B6D0623D4464D23
:10011000414B2561196BC90624D4404D3E496561A8
:100120000D6B03232B4223D1A2613B49C0230D6BEE
:100130009B021D422BD1E26137490B6B1A0644D555
:10014000206238BD5B6859043CD455083249E560EB
:100150000D6B6D06DBD5802319022F4B2161196BC6
:10016000C906DAD52C4960610D6B03232B42DBD025
:100170000D6B1D40012D38D00D6B1D40022D42D05E
:10018000096B0B40032BD0D1244BA361CDE70D6B42
:1001900080221D405202954229D00D6B80221D40C5
:1001A0009202954233D0096B19409942C4D11B4B3E
:1001B000E361C1E7082B0BD00C2B00D08CE71B4868
:1001C00020608BE79108E1609DE718482062B8E75E
:1001D0005568C021AB0250681D0F4B020235184212
:1001E00007D113486843206078E7A0619DE7E0618C
:1001F000A2E7D26A0F2111400131084801F03AFC10
:10020000684320606AE780252902A1618DE7802587
:100210002A02E26190E7C0460010024000127A0014
:1002200000000020809FD50012800000006CDC02DE
:1002300000093D00044B5A69002902D182435A61EA
:10024000704710435861FBE700100240044B9A6965
:10025000002902D182439A61704710439861FBE7FD
:1002600000100240044BDA69002902D18243DA61AE
:1002700070471043D861FBE700100240044BDA6876
:10028000002902D18243DA6070471043D860FBE74F
:100290000010024008B5074B984200D008BD8020EE
:1002A00080000121FFF7EAFF802188000021FFF78D
:1002B000E5FFF3E7002401400B688A6810B51A4394
:1002C000CB68C4681A430B691A434B6909791A430E
:1002D000034B234013434C032343C36010BDC0466C
:1002E00003D2FFFF0023036003718360C3600361D7
:1002F000436170478268002903D10223134383605E
:100300007047012111438160FAE7C046836A1943AF
:10031000816242617047C04682688023190611439A
:1003200081608268002A0FDA8368D90FC9070A4BF7
:1003300008E08268002A07DA8168023BCA0FD10709
:10034000002B01D00029F4D18368002B01DB006C65
:1003500070470020FCE7C046FEEF000082680423DF
:10036000134383607047C046002904D1C36801224B
:100370009343C3607047C16801230B43C360F9E72F
:10038000C36802229343C360C3681943C1607047C6
:10039000CB0107D58068044B18400140081C411E62
:1003A000884170470068F8E7FFFFFFFEF0B53A4864
:1003B00093B0FFF76FFF802080000121FFF746FF19
:1003C00001210120FFF736FF344800F01DFF3449BA
:1003D000344BD222802080278026002455010793A9
:1003E000089183010C907F00F6002C4807A9109318
:1003F00009940A950B940F9411940D970E9600F0A2
:1004000063FF2648012100F07DFF2348002101AD54
:10041000FFF7B6FF01212048FFF7A6FF281CFFF7D2
:1004200061FF012129711C48291C0194AC602C61D9
:100430006C61FFF741FF184801210622FFF766FFB4
:10044000154802210622FFF761FF134810210622FA
:10045000FFF75CFF1048391C0622FFF757FF802486
:100460000D48311C0622FFF751FF21010A480622E0
:10047000FFF74CFF0848FFF74FFF07480121FFF740
:1004800039FF05480849FFF783FF0028F9D00248E3
:10049000FFF764FF13B0F0BD0024014008000240E4
:1004A000FC000020402401400100000170B58024C0
:1004B000A50288B0281C0121FFF7BCFE281C0121E1
:1004C000FFF7D0FE8020C0010121FFF7BFFE902181
:1004D000CE05301C0221012200F0DAFF301C03217E
:1004E000012200F0D5FF301C0921012200F0D0FFCD
:1004F000301C0A21012200F0CBFF02246A46184B6F
:1005000001201471D0710024301C6946032500932A
:1005100055719471134D00F011FF13490C2602918F
:10052000281C02A90394049405940794069600F0ED
:10053000F7FF03940494059407940C4CE1235A02AA
:10054000201C02A90292069600F0EAFF281C012155
:1005500001F03EF8201C012101F03AF808B070BD0E
:100560000C0600000044004040420F0000380140EB
:1005700070B5802082B080020121FFF75BFE8021F0
:10058000C8020121FFF756FE802210030121FFF768
:1005900051FE03246B460125002669460F489D71D4
:1005A0001C715C71DE71009500F0C8FE6846047134
:1005B00044718571C67169460948009400F0BEFE19
:1005C0006A469571132190250091E80569461471DA
:1005D0005471D67100F0B2FE02B070BD0004004844
:1005E0000008004800000000F0B55F4656464D4642
:1005F0004446F0B47C4D99B0FFF7BAFF0126FFF7EF
:1006000055FF00235846794F0C930F93129315937F
:100610000D931093139316930E93119314931793B2
:100620000A9309930B9508960590FFF7BFFE0220E9
:1006300000F076FE0028FAD0022000F079FE6C4A25
:100640000125116800204C0063185E00A446B346E3
:1006500001292BD9664A5C460432AA5C961D1419FE
:10066000A31B984606235B42984443469B07DB0F37
:1006700076009A46BB5BC018131C0C33A34215D0FE
:100680005646002E06D05B00FE5A131C123380190A
:10069000A3420BD0D9465A00BE5A9A1D8019560063
:1006A000BA5B0C338018A342F5D1CB460235072D37
:1006B000CED1614401F0DEF91C2407906946635AEB
:1006C00000048C22060C0125D1000598069504969D
:1006D0008B469A46464C069B04341D5D0021063528
:1006E000022445E0201C02F0BFF98022814610065A
:1006F000311C404401F0BCFC011C484601F0E2FA08
:10070000211C6B00FA5A661C341C92452CD3AA1D7E
:1007100052009146BA5A924526D800296ED1F95A0C
:100720000498081A02F0A0F94B460590F95A049A69
:10073000881A02F099F9059901F0BCFF0021804662
:1007400001F0ACFA002838D0301C02F08DF980237B
:100750008146059819064018414601F089FC011CA4
:10076000484601F0AFFA311C741C06355C452CD0AC
:100770006B00FE5A0635B245C3D36A00BE5A914695
:10078000B245BED8002939D1F85A049E801B02F028
:100790006BF949467B5A8046981B02F065F9414641
:1007A00001F088FF0021061C01F078FA002899D199
:1007B000201C02F059F9211CA3E7301C741C02F024
:1007C00053F90635311C5C45D2D1069D023506959C
:1007D000072D00D07EE70748054D0B9C2860069446
:1007E0008A25054C804646E08FE20A44FC00002042
:1007F000100000202B020000B50200008F4A661A8C
:10080000013616600590F85A079BB04619040D0C86
:10081000401B02F029F94A46061CB85A401B02F058
:1008200023F9311C01F046FF0021051C01F036FAC6
:10083000002800D19AE2201C02F016F98023190644
:10084000041C7018291C01F013FC011C201C01F071
:1008500039FA059901F02EFF06904646F53EFF3E17
:10086000642EB8D80698002101F0FEF90028B2D114
:100870004246950854190699714801F0F9FB011C8C
:10088000099801F01FFA6F4B0021A44609901D60E2
:100890000C1C6A48A2000C301358684E5D000436E8
:1008A000A15DEE18654670005E194218700085194A
:1008B0006E007018851A99005B1A063DAE07590044
:1008C000550053187D5B5B00FD52931DF60F83426C
:1008D00018D0002E08D05D005E187D5B7300FD52BD
:1008E000131C0C3383420DD05E00BD5B5A185200BE
:1008F000BD529D1D6A006E18BD5A76000C33BD5363
:100900008342F1D10234062CC3D1604641000B185A
:100910005C000125494AA01F0432AE5C81077300C8
:10092000FA5AC80F0621FA52A14214D0002806D064
:10093000B11D48003B5A0C213B52A1420BD08A19F1
:100940005300F85A8A1DF85293195A00B85A0C31BC
:10095000B852A142F3D10235072DDBD1079E0CAC72
:1009600000253104A346A9460E0C002243469246B8
:10097000012B36D931484C4604305B00225C43449D
:100980005800951D1418611B680006393D5A385AE5
:100990008B07D90F801BAB1B5843131C0C33A3428E
:1009A0001ED000290AD05D00795B7B5B8D1B991BF3
:1009B0006943131C12334018A34211D05A00BD5A88
:1009C000BA5AA91B951B4D439A1D40195500795BD6
:1009D0007A5B8D1B911B69430C334018A342EDD108
:1009E00082464C461548A300C218506A03F0EEFE3A
:1009F000041C0D1C5046414601F03CF803F0B4FEC7
:100A000000F086FE021C0B1C201C291C03F07EF843
:100A100003F030FF5B46011C186801F053F959469A
:100A200004318B46043901C1022081444A46062A1A
:100A30000AD0024B1D68A84697E7C0461000002068
:100A40000012D946F8000020079D0FAE01242B04A8
:100A5000B346A0461E0CC94900220868924681464A
:100A6000012836D9C54C4546043440002A5D484427
:100A70004400931D1419E51A063D5B00A907FD5AB1
:100A8000F85AAB1B801B5843131C0C33C90FA342ED
:100A90001ED000290AD05D00795B7B5B8D1B991B02
:100AA0006943131C12334018A34211D05A00BD5A97
:100AB000BA5AA91B951B4D439A1D40195500795BE5
:100AC0007A5B8D1B911B69430C334018A342EDD117
:100AD00082464446A948A300C218506A03F076FE35
:100AE000041C0D1C5046494600F0C4FF03F002FEF2
:100AF00000F00EFE021C0B1C201C291C03F006F843
:100B000003F0B8FE5B46011C186801F0DBF859469B
:100B100004318B46043901C1022080444246072A31
:100B200099D1964E12AC3668A146301C01F0F0FF08
:100B30007500079AAB1959000590331C0120140465
:100B40008B460025240C061C9846414600200129AE
:100B50004DD98A480430325C295C9446DC44931DAC
:100B6000881A61460490C81A811F8807C10F8A46F7
:100B700004995800CB185900385A7B5A001B191B8E
:100B8000131C0C33484363452FD0514600290FD026
:100B90005900795A8A460499CB1859007B5A514614
:100BA000091B1B1B4B43C018131C123363451CD07D
:100BB000B24604996646AC46351CCE185A007600FB
:100BC000BA5ABE5B121B361B724380189A1D560020
:100BD0008A185200BE5BBA5A361B121B72430C3382
:100BE0008018AB42E9D16546564601F03DFF6349A6
:100BF000B300CA18516A01F02DFC6049AB00CA1855
:100C0000516A01F027FC059901F032FA011C4846AF
:100C1000006801F057F84B46043399460235043B0F
:100C200001C30236062D90D1554C079B256815A9A6
:100C3000012200201C044646049191468046240C63
:100C40000020012E63D94D4B494604334246C85C0F
:100C5000D35C01229B46191C32406B1C92465A0001
:100C6000944663445B00C218063153004900FB5AA6
:100C70007A5A1B1B111B594302225B468C460C33CC
:100C8000B24241D05146002912D0AA1C51008A46D6
:100C90005244520081184A005B00B95AFB5A0A1BA1
:100CA000191B51435B4603228C441233B2422BD0B2
:100CB000011C0B916046B44651194E00B34659448D
:100CC0000B9E490071184E00B95B5E00BE5B091BAC
:100CD000361B714301324018991D8A4651194E0046
:100CE000B34659440B9E490071184E00B95B5646F5
:100CF0007600BE5B091B361B7143013240180C3372
:100D00006245D9D166468446604601F0ADFE4A464A
:100D10001A499300CA18516A01F09CFB174A4346CE
:100D200099005318596A01F095FB059901F0A0F953
:100D3000824604985146006800F0C4FF04990222DC
:100D4000904401C1434604919144062B00D077E7BB
:100D5000554608986421059500F030FF002911D010
:100D60000899069A013108910B925EE4201C01F06B
:100D70007BFE059901F09EFC06906EE510000020B8
:100D8000F8000020F44803F055FE079EF34A3004B3
:100D9000010C93462823012588469B442E1C711084
:100DA000EF4803F02DFEED4C012120684A428246B7
:100DB00092445346012B20D906250124E7480430EC
:100DC000315C6A185300F85A4146401A01F04CFE53
:100DD0005A46116801F03EFB03F0F8FC0B1C021CA4
:100DE000211CE04803F00CFEDC4B04341868183575
:100DF000029001388442E1D38246D84A55460432F3
:100E00006C00B35C54446100C81845007C5B4146EB
:100E1000601A01F029FE5A46116801F01BFB03F02D
:100E2000D5FC0B1C021C5146CF4803F0E9FDCF480E
:100E300003F000FE023608239B44072EAFD1C74EB5
:100E40002420B346834400267110C94803F0D8FD1E
:100E5000C24D01212C684A42A14691444B46012BC8
:100E600020D906250124BD480430315C6A1853009E
:100E7000F85A4146401A01F0F7FD5A46116801F050
:100E8000E9FA03F0A3FC0B1C021C211CB94803F077
:100E9000B7FDB24B0434186818350090013884420D
:100EA000E1D38146AD4A4D4604326C00B35C4C44FC
:100EB0006100C81845007C5B4146601A01F0D4FD12
:100EC0005A46116801F0C6FA03F080FC0B1C021CA4
:100ED0004946A94803F094FDA44803F0ABFD02364F
:100EE00008239B44062EAFD10C98A44901F0C0F80A
:100EF000A249061C0C900F9801F0BAF89F490F9078
:100F0000129801F0B5F89D4982461290159801F0AB
:100F1000AFF815900A9803F059FC041C50460D1CBC
:100F200003F054FC8B4B8A4A02F0F0FD021C0B1CB0
:100F3000201C291C01F040FE041C0D1C0D988F493B
:100F400001F096F88D490D90109801F091F88B49B9
:100F50001090139801F08CF88849834613901698E6
:100F600001F086F8291C1690201C03F083FC03F086
:100F70002DFC041C58460D1C03F028FC754B744ACC
:100F800002F0C4FD021C0B1C201C291C01F014FEE5
:100F900003F070FC7949041C0E9801F069F8774958
:100FA0000E90119801F064F874491190149801F0B2
:100FB0005FF8724981461490179801F059F817901C
:100FC000201C03F003FC041C48460D1C03F0FEFB30
:100FD000604B5F4A02F09AFD021C0B1C201C291C6E
:100FE00001F0EAFD03F046FC0A90301C03F0EEFB32
:100FF000021C0B1C6248002103F002FD0F9C201C08
:1010000003F0E4FB021C0B1C5E48002103F0F8FC1B
:10101000129803F0DBFB021C0B1C5B48002103F061
:10102000EFFC159803F0D2FB021C0B1C5748002163
:1010300003F0E6FC211C301C01F00CFA03F0C6FBA7
:10104000021C0B1C5248002103F0DAFC0D9E301CE0
:1010500003F0BCFB021C0B1C4948012103F0D0FC2F
:10106000109D281C03F0B2FB021C0B1C45480121FB
:1010700003F0C6FC139803F0A9FB021C0B1C4248AA
:10108000012103F0BDFC169803F0A0FB021C0B1C11
:101090003E48012103F0B4FC301C291C01F0DAF9B0
:1010A00003F094FB021C0B1C3948012103F0A8FC3F
:1010B0000E9E301C03F08AFB021C0B1C30480221E0
:1010C00003F09EFC119C201C03F080FB021C0B1CF7
:1010D0002C48022103F094FC149803F077FB021CC7
:1010E0000B1C2948022103F08BFC179803F06EFBC0
:1010F000021C0B1C2548022103F082FC211C301C21
:1011000001F0A8F903F062FB021C0B1C204802212D
:1011100003F076FC0A9803F059FB021C0B1C1D48D7
:1011200003F06EFC0998154900F0A2FF03F04EFB96
:10113000021C0B1C184803F063FC4146174803F0DF
:101140005FFC174803F076FC00202BE0C046C04649
:101150006C653CB1DBE1B63EB871000810000020C0
:10116000C8710008D4710008E0710008DC71000843
:10117000EC710008F8710008047200080000C84211
:1011800010720008247200083872000850720008BB
:10119000687200087C7200088C7200089C7200085B
:1011A000B07200080C900F90129015900D90109056
:1011B000139016900E901190149017900990CFE50F
:1011C000002103E00A4B5B584350043109480A4BA5
:1011D00042189A42F6D3094A02E00023136004320F
:1011E000074B9A42F9D300F009FAFFF7FDF970476F
:1011F0008875000800000020F0000020F0000020AA
:1012000080350020FEE700000268264B00211340D5
:10121000254A0360016041608160C160904219D03D
:10122000224B98421CD0224988421FD0214A90422A
:1012300023D0214B984227D0204988422BD0204AE6
:10124000904200D070471F48F02143680A051A43B6
:101250004260F7E71B480F2243681A434260F1E7F8
:101260001848F021436819434160EBE71548F02125
:1012700043680A011A434260E4E71248F0214368D8
:101280000A021A434260DDE70E48F02143680A0370
:101290001A434260D6E70B48F02143680A041A4318
:1012A0004260CFE7FEFF0000080002401C00024041
:1012B0003000024044000240580002406C000240EE
:1012C000800002400000024002680D4B10B51A4039
:1012D0008C680B6A23430C6923434C6923438C6954
:1012E0002343CC6923434C6A23438C6A234313432F
:1012F0000360CA680B68496842608360C16010BDC2
:101300000F80FFFF0268002903D1044B13400360E4
:101310007047012111430160FAE7C046FEFF00005B
:10132000024B19680840431E984170470000024074
:10133000014B58607047C04600000240F0B55F4660
:1013400056464D464446F0B48B460E68032183B0A2
:101350000022002301258C460BE001332C1C9C400D
:10136000371C02322740A74233D001330232102B00
:1013700055D02C1C9C40371C2740A742EDD1594624
:101380000C790121A04601944C42A0444146012918
:101390004CD967469740FC43A04601684746394010
:1013A0000160019C016894400C430460C168674679
:1013B0009740B943C1605C46E179C7689140013309
:1013C0002C1C39439C40371CC16002322740A74285
:1013D000CBD159460C790121A14601944C42A1443C
:1013E000494601293AD967469740FC43A04604681C
:1013F00047463C400460019C016894400C430460F3
:10140000C16867469740B943C1605C46E179C768E7
:10141000914039430133C1600232102BA9D103B08E
:101420003CBC90469946A246AB46F0BD64468168F6
:101430009440E4432140816059464979A04684683C
:101440009140214381608188B943818059468F79D9
:1014500084889F402743BCB284809EE781686446AD
:101460008A469440E14354460C4084605C4664796B
:101470008846816894400C4384608488BC4384809F
:101480005C46A77981889F400F43B9B28180AEE75F
:1014900007230B40C9080831890030B59B000C5860
:1014A0000F259D40AC430C500C589A4022430A50E3
:1014B00030BDC046044A1368002B03D018181060D2
:1014C000181C7047014BF9E7F00000208035002020
:1014D000012040427047C0468023980148600020A8
:1014E0007047C0460120704700207047101C7047AD
:1014F00070B50C1C161C8D18002A0CDD21780748CD
:10150000013400F071F80548802100F071F80028DE
:10151000F9D0AC42F2D1301C70BDC046004400404E
:10152000036801229343F0B50360041C224E406817
:101530000D1C896806400E4366606868EA68276883
:101540002E691E4B02431F4032433A432260A1687A
:101550001B4F6B690F408BB01F43A76001A8FEF7BC
:10156000B1FD184A944222D01748844221D0039EEC
:101570002168090400D576002D68301C291C00F074
:1015800079FA291C071C301C00F0B8FA6A080023FD
:1015900091425B412168F8180A0404D50B4F0607F5
:1015A000750F3840284382B2A2810BB0F0BD079E70
:1015B000DEE7089EDCE7C046FFCFFFFFF3E9FFFF51
:1015C000FFFCFFFF0038014000440040F0FF000036
:1015D000002904D103680122934303607047016826
:1015E00001230B430360F9E7C905CA0D0285704763
:1015F000C0690840431E98417047C0463B4B0122DA
:10160000196882B01143196058683949014059601E
:101610001868384901401960186837490140196055
:101620005868364901405960D96A0F208143D96210
:10163000186B334901401963586B0021904358637C
:10164000996000910191186880225102014319604C
:10165000A020191C80239A02C00002E0009B834254
:1016600008D00B6813400193009B01330093019B4A
:10167000002BF3D01D4980200A688302134006D056
:1016800001210191019A012A05D002B0704701930E
:10169000019A012AF9D11B4B1120186013481A4BEB
:1016A000416841604268426041680B404360426863
:1016B00088214B0313434360026880214B0413438A
:1016C0008022036091040368084A0B42FBD05068F3
:1016D00003218843506050680223034353600C2168
:1016E000506808400828FBD1CFE7C04600100240F0
:1016F0000CB8FFF8FFFFF6FEFFFFFBFFFFFFC0FF88
:10170000ACFEFFFF00200240FF7FC0FF0000000092
:10171000F0B5474680B48AB0041C0D1C00F058F8A0
:10172000294A0023061CD0560F1C9046431C0DD09E
:10173000201C291C00F064F9002807D0201C291C5B
:10174000204B1F4A00F05CFA002805D1301C391CE0
:101750000AB004BC9046F0BD04940595029403952C
:1017600044461A4E257801210027009101960897DA
:10177000002D0ED1134B124A06920793684600F0D3
:1017800077F900280FD00898002811D1069E079FEE
:10179000DCE70C490A48021C0B1C01F0BDFD069059
:1017A0000791022DEAD103F025F921230360EAE72E
:1017B00003F020F908990160E8E7C046C046C0463A
:1017C00000000000000000004C000020BC72000877
:1017D000F0B55F4656464D464446F0B40D1C854F65
:1017E0002E1C83B0041C021C3E40BE4200D1DEE031
:1017F000002D00DCB7E00F1500D1C0E07E4B0903DF
:10180000FC1880270D0B7B032B43E00700D59CE0E1
:10181000D10F64105D0080206B18A446520016277B
:101820000026002180030C189C4202DC21181B1B9F
:101830003618D50F5B0040085B190C185200013FA9
:101840009C4202DC21181B1B3618D50F5C00013F9F
:10185000631952004008002FE5D18025002420277D
:10186000280601940097002480461BE08B4200D19B
:1018700098E05B00009D99464008D30F4B44013D22
:10188000271852000095B9468B4224DC21D0009FD6
:101890005B009946013FD30F4B445200400800972C
:1018A000002F2BD02718B9468B42DFDD4D46EF0FB6
:1018B0002C188A46FD07454539D0591A4A459B419F
:1018C0005F42CB1B01994D460F18521B01975146A1
:1018D000CFE79742DBD84D46EF0F2C188A46FD071D
:1018E00045452BD0591A4A459B415D424B1B0199F6
:1018F0004F460D18D21B01955146C8E7134329D115
:10190000019C63083D4F7010C219F50702D580266F
:10191000340623436146080585181C1C201C291C1D
:1019200003B03CBC90469946A246AB46F0BDE70FDB
:10193000FF077D427D41AA468A44BEE7E70FFD07C7
:101940006F426F41BA468A44CCE7D00F5E0033182D
:1019500052005DE7019A511C38D0019D01212940B8
:101960004B195B08CEE769004B082343D6D000270C
:10197000002D32D1D10A153F52050029FAD080241A
:101980006503294225D10023490001332942FBD0B8
:1019900001242025E61AE81ABF19161CC640314357
:1019A0009A402BE7974200D880E7191C61E7221C78
:1019B0002B1C201C291C02F0A9F8021C0B1C201C4B
:1019C000291C01F0F9F8041C0D1CA7E701360023BF
:1019D00098E7202001260023DEE7221C2B1C201C78
:1019E000291C02F005FB021C0B1C01F095FC041CD9
:1019F0000D1C93E70000F07F01FCFFFF0000E03FBB
:101A00000B1C011C30B519430222002901D1101C06
:101A100030BD80242506AB421ED0114A11499C18C6
:101A200004228C42F3D9104D5C198C42EFD90F4936
:101A300003228B42EBD9802215060C495C19032244
:101A40008C42E4D9084A934203D0054D0022AB42B0
:101A5000DDD142424241DAE70028D8D0EBE7C04668
:101A60000000F0FFFFFFDF7F0000F07FFFFF0F00AF
:101A700000207047002934D00123002210B488428E
:101A80002CD301242407A14204D2814202D20901AD
:101A90001B01F8E7E400A14204D2814202D24900CE
:101AA0005B00F8E7884201D3401A1A434C08A04271
:101AB00002D3001B5C0822438C08A04202D3001B07
:101AC0009C082243CC08A04202D3001BDC0822431E
:101AD000002803D01B0901D00909E3E7101C10BC42
:101AE0007047002801D00020C04307B4024802A17B
:101AF0004018029003BDC046D90000000029F0D074
:101B000003B5FFF7B9FF0EBC4243891A1847C04618
:101B1000002941D010B4041C4C40A44601230022EB
:101B2000002900D54942002800D5404288422CD3E4
:101B300001242407A14204D2814202D209011B01DF
:101B4000F8E7E400A14204D2814202D249005B00DE
:101B5000F8E7884201D3401A1A434C08A04202D346
:101B6000001B5C0822438C08A04202D3001B9C0887
:101B70002243CC08A04202D3001BDC0822430028E9
:101B800003D01B0901D00909E3E7101C6446002CAF
:101B900000D5404210BC7047002806D003DB00206F
:101BA000C043400801E08020000607B4024802A1BB
:101BB0004018029003BDC046190000000029EBD078
:101BC00003B5FFF7A7FF0EBC4243891A1847C0466A
:101BD0007047C0468446101C62468C46191C6346FA
:101BE00000E0C0461FB501F025FF002801D4002108
:101BF000C8421FBD10B501F06BFE4042013010BD60
:101C000010B501F017FF002801DB002010BD0120F6
:101C100010BDC04610B501F00DFF002801DD002009
:101C200010BD012010BDC04610B501F08FFE002888
:101C300001DC002010BD012010BDC04610B501F030
:101C400085FE002801DA002010BD012010BDC0462D
:101C50008446081C6146FFE71FB500F0B3FB00286F
:101C600001D40021C8421FBD10B500F03BFB40422B
:101C7000013010BD10B500F0A5FB002801DB0020ED
:101C800010BD012010BDC04610B500F09BFB002820
:101C900001DD002010BD012010BDC04610B500F0D0
:101CA00049FB002801DC002010BD012010BDC0460A
:101CB00010B500F03FFB002801DA002010BD012024
:101CC00010BDC046F8B5430242004F024C00C00FA1
:101CD0009B09120E061C9C46240EC90FBF098842A0
:101CE00057D0151B002D00DC7EE0002C41D1002FC9
:101CF00064D0013D002D00D0ABE0DB1B141C061CA2
:101D0000590144D59A019509281C02F055FE053861
:101D10008540844200DD79E0001B1F242B1C411C00
:101D2000221ACB4095401F1C2B1C5D1EAB413B4330
:101D3000012500240F201840042800D004338021FE
:101D4000CF0401221F401640002F05D0FF2D5AD08E
:101D5000B34C23402C1C0135EDB2DA08012D3BDDDC
:101D600053025A0AE4B2E4052243F607101C30433A
:101D7000F8BDFF2A2BD08021CC04274301231B2D43
:101D800049DD6746FB1A141C061C5901BAD4651CB0
:101D9000D0E7151B002D4FDD002C13D0FF2A5AD0A1
:101DA0008024E1040F4301231B2D00DCB0E06344D9
:101DB000141C590155D4651C061CBBE7551C141C8A
:101DC000061CB7E7002F7CD1551C141CB2E78027F6
:101DD00063467D00FF24ADE7002AC3D0002C28D045
:101DE0008020C1030A43BBE7002D47D1501CC3B27A
:101DF000012B00DC96E06446E51B680158D53D1BCD
:101E00000E1C141C80E7FF240022ACE7844B241A2C
:101E10002B40651C8EE73E1C2021EE404D1BAF4041
:101E20003B1C5F1EBB4133436746FB1A141C061C58
:101E3000ABE757027A0A96E7002D7FD1541CE1B236
:101E4000012953DDFF2C00D19BE0FB185B08951C9A
:101E500070E7FF2A92D1061C802063464500FF24CC
:101E600068E7671CFF2F3CD06D4A01261E401340D7
:101E70005B083343A51C061C3C1C5BE76842002A38
:101E800025D0FF2C70D08022D6041D1C3543AC46D3
:101E900001261B2809DC62462025C2402B1A604619
:101EA0009840061C701E86411643BB1B0E1C27E77C
:101EB000141C002D00D027E7002601250423002450
:101EC0004AE7013D002D08D1FB18141C71E7002BD7
:101ED00050D1651C3B1C0E1C2CE7FF2A00D062E78A
:101EE000B9E780235D00FF24042335E7002A7CD175
:101EF000002B00D1A1E0002F00D1AFE0FB18590169
:101F000000D4B0E0464E022533400124061C11E700
:101F10003C1C2023EC405D1BAF403B1C5F1EBB41C3
:101F2000234344E7002A12D16546002D41D1002FFA
:101F3000C2D03B1C0E1C01250024FBE66D42002A8A
:101F400023D1002B66D1651C3B1C061CF2E66246C1
:101F5000002A38D1002F07D1802200265500314BAE
:101F6000FF24F9E6FF2C93D13B1C80270E1C7D003B
:101F7000FF24DFE601380028F4D16646BB1B0E1CA7
:101F8000BEE680277D000423E6E6FF2C5CD080229D
:101F9000D1040B439C4601231B2D08DC2021624603
:101FA000EA4063464D1BAB40591E8B411343DB197E
:101FB000FFE6002F38D0EB1B5A014BD57B1B0E1CC4
:101FC00001250024B6E6002F00D100E78020D308C9
:101FD000C403234204D0FF08274201D13B1C0E1C3E
:101FE0008021DB004D00FF24A4E6002B20D0002F31
:101FF00000D1ECE68022DE08D503311C2E4203D04E
:10200000F908294200D0311C061C8020CB00450075
:10201000FF248FE6013D002D14D1FB18C9E6C04610
:10202000FFFFFFFBFCFFFF0363460125002481E661
:10203000802465003B1CFF247CE63B1C061C01251C
:10204000002477E6FF2CA6D13B1C8027061C7D00D0
:10205000FF246FE6002B00D12EE769E66346061CDD
:102060000125002466E6061C0125002462E6C04620
:10207000F0B55F4656464D464446F0B4450244002E
:1020800083B00E1C6D0A240EC70F002C07D1002D43
:1020900000D091E0042101228846924609E0FF2CFD
:1020A00055D08023180400210543ED007F3C88466D
:1020B0008A46331C58007602D90F760A000E8B46EA
:1020C0004CD101229446002E00D081E05B467B403B
:1020D0006246414601930A430F2A50D9201A6901EA
:1020E00081467501A94200D3B3E0012253429944CD
:1020F0001B2400260127621E381C10404B0076006E
:10210000002900DAA9E09D4200D8A6E0013C002C9D
:1021100000DCABE000280CD0191C76005B00002925
:1021200001DB9D4201D85B1B3E43013C002C00DCDF
:102130009CE059007200002B01DB8D4201D8491B45
:102140003A43013C4B0056000029EADAEBE7002D48
:102150002DD10820022180468A46AAE7FF2820D0F8
:102160008022130400211E438C465B467B4062465E
:102170004146F6007F3801930A430F2AAED85649EC
:1021800092008A589746019BFF260025F0052843B8
:10219000DE07304303B03CBC90469946A246AB46AE
:1021A000F0BD331C5A1E934102339C468EE70C222D
:1021B000032390469A467CE7281C02F0FDFB76221A
:1021C000441F5342A5401C1A00208046824670E7F7
:1021D000301C02F0F1FB7623411F8E405A42002151
:1021E000101A8C4672E700233C4DFF26CEE75F466F
:1021F000351C01976346022BC5D0032B63D0012BFE
:1022000043D049467F31002935DD0F272F40042F69
:1022100000D004352B0103D5314A494615408031A1
:10222000FE29B0DCA801450ACEB2019BAEE700262C
:102230000025ABE78020C1030D4211D00E420FD123
:102240000E4373025D0AFF265B469FE701975346E4
:10225000D1E7491B1A2401264CE75B1B3E4355E797
:102260000D436A02550A3B1CFF268FE71D1C6B1E9F
:102270009D413543C5E77E2467424A46B91A1B296A
:1022800008DD019B0026002580E7019D00262B40EC
:1022900000257BE74E469E36281CB5402B1C5D1E54
:1022A000AB41C84003430F251D40042D00D004332B
:1022B0005A0103D5019B0126002567E79C01650AA9
:1022C000019B002662E78027FC0325436E02750A06
:1022D000019BFF265AE7C046C4720008FFFF7F003B
:1022E000FFFFFFF74302420070B55C0AC60F130EF2
:1022F00048024A00450A120EC90FFF2B05D0FF2ADB
:1023000008D0012093420BD070BD0120002CFBD1DE
:10231000FF2AF6D10120002DF6D101209342F3D1FE
:10232000AC42F1D18E4203D0002BEDD1002CEBD189
:102330000020E9E7F0B5430242004F00C60F480213
:102340005C0A450A130EC90F3A0EFF2B26D0FF2A4E
:1023500029D0002B0CD1604260418446002A0AD06B
:10236000002816D18E4221D0002E14D1012014E075
:10237000002AF7D194466F426F416046002805D18C
:10238000002FEFD00120002E07D004E00020002F06
:1023900003D10029EAD101214842F0BD002CD6D05A
:1023A00002225042F9E7002DD3D0F9E79342DBDC5B
:1023B00004DBAC42D8D80020AC42EED2002EEAD0EA
:1023C0000120EAE7F0B5430242004F00C60F480281
:1023D0005C0A450A130EC90F3A0EFF2B26D0FF2ABE
:1023E00028D0002B0FD0002A14D194466F426F41A1
:1023F0006046002814D00020002F03D100290DD101
:1024000001214842F0BD604260418446002AEDD07F
:102410000028F3D18E4211D0002EF1D10120F1E736
:10242000002FF7D00120002EECD0E9E70220002C8D
:10243000E8D1D4E70220002DE4D1D2E79342EBDCCF
:1024400004DBAC42E8D80020AC42DBD2002ED7D06F
:102450000120D7E7F0B55F4656464D464446F0B4F6
:102460004502460083B00F1C6D0A360EC40F002EC5
:1024700006D1002D70D1042101228846924609E040
:10248000FF2E43D08023180400210543ED007F3E3A
:1024900088468A46381C43007F02C10F7F0A1B0E04
:1024A0008B463AD10121002F62D158466040424606
:1024B00001900A430F2A3FD92C04F018260C3B0444
:1024C0001A0C311C51433F0C2D0C7E436A4381464C
:1024D000080C36182C1CB3187C439A4200D99AE099
:1024E00009041D04080C2E18B5011B0C691E8D4132
:1024F000B20EE7181543BC0125432B014BD5012033
:10250000284001216D088944054344E0002D1ED177
:102510000820022180468A46BCE7FF2B12D0802289
:10252000100407435846002160404246FF007F3BAD
:1025300001900A430F2ABFD890005B4A8446624448
:1025400010688746391C4A1E91410231ADE70C22C2
:10255000032390469A469DE7281C02F02DFA762226
:10256000461F5342B5401E1A00208046824691E71E
:10257000381C02F021FA7621431F4A429F40002175
:10258000131A92E70194514602292CD0032900D155
:1025900080E0012948D04E467F36002E51DD0F24C1
:1025A0002C40042C00D004352A0103D53F494E4667
:1025B0000D408036FE2E3DDD019B01241C40FF2195
:1025C0000025C805E2072843104303B03CBC9046F1
:1025D0009946A246AB46F0BD0024354DFF21F0E7F9
:1025E00051460229D2D1019D01242C40FF21002512
:1025F000E7E75E463D1C0196C6E73D1CC4E7802622
:10260000F3031D420BD01F4209D11F437A02550A22
:102610005C46FF21D5E780225702E41960E71D439D
:102620006F027D0AFF21CCE7019B00251940CCB247
:102630000021C6E70198AD0101246D0AF1B2044002
:10264000BFE77E2673424A469F1A1B2F05DD019D78
:1026500001242C4000210025B3E749469E312C1C63
:102660008D402E1CFC40751EAE4126430F2030408D
:10267000042800D00436700105D5019F01243C4098
:10268000012100259DE7019AB30101245D0A144050
:10269000002196E78022D00305436C020199650A68
:1026A00001240C40FF218CE704730008FFFFFFF7B3
:1026B000FFFF7F00F8B5430245004F024C00C20FF8
:1026C000980984462D0E200EC90FBF09FF2854D04B
:1026D000012671408A423BD02C1A002C00DC89E094
:1026E000002825D1002F4BD16E1C2C1C6346151CD5
:1026F0000F221A40042A00D004338027F904012253
:1027000019402A40002906D0FF2E00D181E0B14DAA
:10271000341C2B400136F6B2DD08012E62DD6B025F
:102720005D0AE4B2E4052543281CD2071043F8BD36
:10273000FF2D51D08021CB041F4301261B2C70DDBF
:1027400067462C1CBB1B151C580122D4661CCFE706
:102750002E1A002E76DD002832D0FF2D3CD08024AA
:10276000E1040F4301231B2E00DCD1E063442C1C49
:1027700058017AD4661C151CBAE7002FAAD1A7E726
:10278000013C002C6DD163462C1CDB1B151C580131
:10279000DCD59A019609301C02F00EF90538864006
:1027A000844239DC001B1F231A1A331C311C441CC1
:1027B0009340E1405E1EB3410B430126002497E79E
:1027C000002F00D190E7013E002E03D164463B1953
:1027D0002C1CCDE7FF2DC5D1151C80226346560069
:1027E000FF2485E7002D9CD0002C28D08020C70333
:1027F0003D4394E7002C45D16B1CD8B2012800DC86
:1028000090E06446E61B730157D53E1B2C1C0D1C43
:10281000C1E7FF24002585E76E4B241A3340661C70
:1028200066E7381C2021E0400C1BA7403E1C771EA9
:10283000BE41064367462C1CBB1B151C84E769027E
:102840004D0A6FE7002E79D16C1CE0B201284BDDF8
:10285000FF2C00D198E061467F18AE1C7B08151C48
:1028600046E7FF2D00D068E7B6E7671CFF2F36D09C
:1028700058480121194003405B08A61C0B433C1C2F
:10288000151C35E76642002D1ED0FF286FD080252D
:102890006246EB041A43944601251B2E09DC62466E
:1028A0002023F24064469E1BB440251C6C1EA541AB
:1028B00015437B1B041C0D1C69E7002E0CD1002264
:1028C00001260423002426E76446002C55D1461C2B
:1028D0003B1C041C0D1C0BE72C1C151C5BE7802308
:1028E0005E00FF24042316E7002D00D08DE065462E
:1028F000002D00D1ADE0002F00D181E07B195C01FB
:1029000000D47EE0334F151C3B4002260124EFE645
:10291000381C2023F0409E1BB7403B1C5F1EBB4170
:10292000034323E7002D15D16546002D47D1002F25
:10293000C5D03B1C0D1C01260024D9E67642002D93
:1029400026D16546002D00D07DE0461C3B1C041CB2
:10295000151CCDE66546002D40D1002F07D1802102
:1029600000224E001C4BFF24D5E6FF2894D1802086
:102970003B1C0D1C4600FF24BAE6013E002EF4D19C
:102980003B1B0D1C041C02E780256E000423C2E6DD
:10299000FF2852D080246146E30419438C4601236A
:1029A0001B2E09DC20216446F44065468E1BB54091
:1029B0002B1C591E8B412343DB19041CD8E6002F26
:1029C0001ED0EB1B58014BD57B1B01260D1C002490
:1029D0008EE6C046FFFFFFFBFCFFFF03002F00D188
:1029E000FAE68020EB08C403234237D0FF082742D1
:1029F00034D13B1C0D1C8022DB005600FF2477E6FF
:102A00006346151C0126002472E66446002C14D08F
:102A1000002F00D1E0E68023E608D803311C0642EF
:102A200003D0F908014200D0311C151C8022CB00D4
:102A30005600FF245CE6FF28B1D180203B1C151C0A
:102A40004600FF2454E6013E002EF4D17B19041CFD
:102A50008EE63B1C151C0126002449E6151CCAE71E
:102A6000002B00D12BE7CCE770B5041E3CD0C50F7E
:102A700000D04442201C01F09FFF9E21261C0B1A0F
:102A8000962B0ADC0838844061024C0ADBB2DB0575
:102A90001C43ED07201C284370BD992B0ADD05223D
:102AA000141A311CE140041C1B34A6400A1C711E80
:102AB0008E41164305281BDC144C0F22344016406F
:102AC000042E00D00434620105D59F231B1AFF2B6E
:102AD0000CD00E4804405E1CF1B2E40801290ADD66
:102AE0006402640ADBB2D2E7002500230024CEE7AB
:102AF000411F8E40E0E7002CF4D0002B03D0802251
:102B0000D0030443ECE76602740AC0E7FFFFFFFB53
:102B100010B5041E34D001F04FFF9E231B1A962BD4
:102B200007DC083884406402610ADBB2D805084338
:102B300010BD992B0ADD021C1B32211C91400A1C7E
:102B4000511E8A410521091ACC40144305281ADC7C
:102B5000184A0F2122400C40042C00D004325101AD
:102B600005D59F24231AFF2B21D012480240591C5F
:102B7000CCB2D208012C09DD5002410ADBB2D5E704
:102B800000230021D2E7421F9440E1E7002A0BD046
:102B9000002B06D08021CC0322435202510ADBB223
:102BA000C4E75002410AC1E7DBB20021BEE7FF23C0
:102BB0000021BBE7FFFFFFFBF8B55F4656464D46D9
:102BC0004446F0B40C03460F640A3443A3465E0047
:102BD0001C03DB0F9C46630A98464D00530F444686
:102BE0001C436D0DC90F760DD2000F1CC000A1460D
:102BF0009246AB1B614500D1A4E0002B00DCF5E060
:102C0000002E0CD1261C164300D1C2E0013B002B44
:102C100000D046E15C464B46821AE71A21E0D24ECC
:102C2000B54200D1CDE080244A4627043A4391467C
:102C3000382B00DD0FE11F2B00DD50E12026F61AB6
:102C40004C4652465746B440B740DA4022433E1CF9
:102C50004C46771EBE41DC403243261C5B46821A3E
:102C60009F1B904280414642BB1B141C2E1C0F1C14
:102C7000180200D4AEE05D02690A88464246002A86
:102C800000D1D9E0404601F097FE051C083D1F2DFC
:102C900000DDDAE02822131A201C4146D840A94062
:102CA000031C0B43AC40AE4200DD90E0AE1B711C38
:102CB0001F2900DD00E11F20851B1A1C201CAA40D3
:102CC000C840AC401043661EB4410443CB400122CF
:102CD00000260F202040042864D0201DA042A441DB
:102CE000654280215B1901240D041D402740002D01
:102CF00007D09D4EB24200D19AE09C49161C0B4071
:102D000001325C07C00852050443DB08550D012D54
:102D100062DD1B0376051B0B760D00200021090DDB
:102D2000201C0A05924C1343760575081C402C4361
:102D30006300FF07590839433CBC90469946A246B8
:102D4000AB46F8BD002B00DC91E0002E31D0864E62
:102D5000B54200D1A9E080244E4622041643B14674
:102D6000382B00DD18E11F2B00DD73E12026F61A59
:102D70004A46B240904652464446DA4022435446C0
:102D8000B440261C741EA6414C463243DC40121847
:102D9000F6E0041C0F206A1C5B462E1C0F1C204012
:102DA00004289AD180252D0401211D400F40201CAC
:102DB0009DE7144300D0DDE06A1C5B46041C2E1C1A
:102DC00087E780215B46041C0A012E1C81E7761BE5
:102DD000664D2B40721C7CE7211C194300D167E231
:102DE000002E41D080200203134392E7002B00D035
:102DF00088E0691C4E05740D012C00DC1AE15B466D
:102E0000161C4C46821A191B90429B415B42C91A00
:102E100088460B0200D49EE0371ABA4592415E46BE
:102E2000A41B5342E11A88463C1C2E1C674625E72A
:102E3000161C0023002470E7201C01F0BDFD20308B
:102E4000051C083D1F2D00DC24E7031C283B9C408B
:102E5000231C002427E74A4653461A430026002A2B
:102E600000D1FBE60122F9E61D032B0B55E7002BF1
:102E700000D004E16E1C7405630D012B00DCAAE098
:102E800039498E4200D130E11118814280414B46D0
:102E900042425B449B18DC0749080C435B08AA1CB0
:102EA00017E7314FBD4200D0C2E6041C80205B46CC
:102EB0000F1C02012E1C0CE7301C1F381A1CC240CC
:102EC000151C202900D182E03F218E1BB3401C43FA
:102ED000631E9C412C43012200230026F9E61C1CA2
:102EE000203C4F46E7403E1C202B72D04022D41A93
:102EF0004B46A3401A1C57463A43531E9A4132434D
:102F00000026ABE65F42002D50D0174DAE4200D1F7
:102F100055E180245A4621040A439346382F00DDA8
:102F2000DAE01F2F00DD78E12021CC1B051C5A467A
:102F3000A240FD40A04015435B46421E90412843FD
:102F4000FB4057463C1AA24592414846C11A554299
:102F50004B1B67468CE6081C104330D1002701222A
:102F6000002304200026CCE6FF070000FFFF7FFFC0
:102F7000FFFF0F80013B002B24D153461A184C460B
:102F8000824280415C444342E3182E1C141C180208
:102F90003ED4721C0F1C9CE64A4653461A4300243A
:102FA000002A00D1F3E601221218E9E75B46034349
:102FB00000D083E0231C721C5446674689E6141C2B
:102FC0002E1C5BE6CD4EB54200D0C9E66DE700236E
:102FD0007DE700228FE75E460643002D00D0F4E037
:102FE000002E00D14CE14B46134300D17EE1151871
:102FF0004E46854280415E444242B3181E0200D4D0
:1030000082E1BF4F2C1C3B4002220F1C012660E6D0
:10301000BA4D701CA8424BD0B94F0125254062081B
:103020003B402C1CDF0714433C43B21C5B08061CCE
:103030000F1C4EE65E460643002D2CD1002E00D01C
:103040007DE04E46141C164388D04B46674601224D
:1030500000263EE61E1C203E4C46F440261C202B3B
:1030600000D1D8E04022D41A4B46A3401A1C544643
:103070002243531E9A4132430024121880E75B42D8
:10308000002D37D15C46044300D0D7E0721C4B467C
:1030900054460F1C1DE6002E6ED14B46141C1343E4
:1030A00000D1DCE080254B4667462A01934E10E6AE
:1030B0008021061C0A010023042022E6013F002F84
:1030C00079D1171A5B46BA45AD414946CA1A6842DA
:1030D0003C1C131A6746CBE55F46074300230020DC
:1030E000002F00D12DE701202BE780252A010023A6
:1030F000042006E6814DAE4200D1D3E080245D4637
:1031000022041543AB46382B00DDB0E01F2B00DD59
:10311000DBE02025ED1A021C5C46AC40DA40A840FA
:10312000451EA841224302435846D840031C554639
:103130005419544592414B4450421B1827E74A46C4
:103140005646324300D185E0851B5B464C46A8427B
:103150009241191B56428B1B1E0200D4ADE057460C
:103160003D1A5B46AA458941E41A4A42A31A6746BA
:103170002C1C01220026ACE54D46161C154344D0FC
:103180005C468021C0086207E3080D0310432B4210
:1031900000D181E04C46E10829427DD1F70866075D
:1031A0003E430B1C6746700FDB008022F400034394
:1031B0001201524E8DE5514DAE4200D0AEE6802058
:1031C0004B4654466746020183E5002E5ED04C46CE
:1031D00014431AD0C7088025584643072C03C0085B
:1031E0001F43204208D04E46F308234204D15246E2
:1031F000D5087707181C2F43C300FC00780F0F1C5D
:10320000802103430A013D4E63E5802632015B467F
:10321000041C3A4E5DE5002229E7391C20395C4642
:10322000CC40221C202F67D04023DF1B5D46BD40D1
:103230002843431E98411043002382E6013B002BA4
:103240002CD150445C469042AD414C446A42A31894
:10325000041C9CE65B46041C0122002639E5802400
:10326000042100272201274B4842244E49E55D46B0
:10327000054300230022002D00D158E7012256E724
:10328000141C4B460F1C0122002622E5141C802230
:103290004B461201194E1CE5061C84E7174A96425C
:1032A00000D030E70F1C80214B4654460A0110E540
:1032B0007405660D002300242FE5181C284300D157
:1032C0004CE62C1C0122002603E51C1C203C5D461C
:1032D000E5402C1C202B1CD04022D31A5A469A4081
:1032E0000243501E82412243002320E75B46041C18
:1032F0000F1C01220026ECE4002599E7FF070000DF
:10330000FFFF7FFFFFFF7F002C1C0F1C0122002608
:10331000DFE40022E4E7C046F0B54D4644465F4690
:103320005646F0B41D1C4B00141C0E035B0DCA0F57
:1033300087B0071C360B98469146002B1DD1321CD6
:10334000024300D181E1002E00D104E2301C01F0E3
:1033500033FB272800DDF8E12821031C083B0A1A6B
:10336000391C9E40D1400E439F40C14B0021181A8A
:10337000002280468A4600920FE0BE48834231D048
:1033800080214B031E43BC487A0FF6000021002326
:103390001643FF0080448A460093291C201C251CEC
:1033A0004A000C03CB0F240B520D9B4625D1211C48
:1033B000014300D150E1002C00D1C2E1201C01F0FA
:1033C000FBFA272800DDB6E1031C2822083B291C54
:1033D000121A9C40D1400C439D40A54B1A1A002064
:1033E000029019E0321C3A4300D029E10827022359
:1033F000BA46002600270093CFE79E48824200D1BC
:1034000013E180214B031C439B49680FE400002318
:103410000443ED005218029348465B46434002982D
:103420005146019301430F2900D8DFE043469A1A21
:103430000492A64200D86EE171087B08F607334378
:10344000FA07894698460292280E240204432D0268
:103450002704390CAB46250C00914846291CFEF781
:1034600009FB009F061C4743291C4846FEF746FB04
:10347000434608041A0C1043874207D90019013E3D
:10348000844203D8874201D9013E0019C11B8A46F4
:10349000081C291CFEF7EEFA009B071C4343291C5D
:1034A00050469946FEF72AFB424610040B04010CD5
:1034B0000B43994504D91B19013F9C4200D864E194
:1034C00036043E435F464A46390C89469B1A5946A4
:1034D0003204170C0A0449467943120C03928C46B5
:1034E0000399300C7A4341434F4678438C44170C80
:1034F0006744B94202D9802149024018390C1204AC
:1035000040183F04110C7F18834200D227E100D1FC
:1035100041E102991B1ACF1BB942804141425A1A1C
:103520009046A24200D15FE1101C291CFEF7A2FACE
:10353000009B02904343291C40469A46FEF7DEFA60
:10354000380C090401438A450AD9029A0919013A3B
:1035500002928C4204D88A4502D9013A0292091992
:103560005346C81A291C0590FEF784FA009A291CB4
:103570004243804605989246FEF7C0FA3F040D0488
:103580003A0C2A43924509D901214B421219984419
:10359000944203D8924501D998441219029D43469A
:1035A0002F041F435046111A3804030C4D465D4347
:1035B0000398AC46039D3A0C584355434B465A4337
:1035C000AC44030C63449D4202D980256D0252191C
:1035D0001D0C000452191B04050C5B19914200D20A
:1035E000E6E000D13DE1012217435AE0890023487B
:1035F0008C46604401688F46019B1E4A00260027C6
:1036000000200021381C0F0D3C051D4D34431205D0
:10361000254015436E00DB077108194307B03CBC19
:1036200090469946A246AB46F0BD211C0320294393
:10363000029000D0F0E60223002400250293EBE67E
:103640000C20032182460091A7E604270123BA46F5
:10365000002600270093A0E6012100240025029106
:10366000DAE601270023074E7F42024AC8E7C04638
:103670000DFCFFFFFF07000001FCFFFF4473000883
:10368000FFFF0F80FFFF0F002F1C5A46029D261CD4
:103690000192022DB0D0032D00D101E1012D00D106
:1036A0009CE0049B82481A18002A00DC8CE00F245E
:1036B0003C40042C05D03B1DBB42BF417D427619E6
:1036C0001F1CF10105D57B4A04998020C4001640D7
:1036D0000A19794B9A4200DD8EE77507FF087602DA
:1036E00051052F43360B4A0D019B89E70022002626
:1036F000002785E7802001030E4216D00C4214D12A
:103700000C432603360B5B462F1C6C4A78E74C466D
:103710000194009DBDE7A64243D00498B846013805
:1037200000270490B14602978EE60E4333031E0B2A
:10373000624A4B4664E7041C283CA5402C1C00252B
:103740004BE601F039F920303BE6061C283EB74035
:103750003E1C002709E601F02FF92030F9E5029A16
:10376000013E111C59445945924152421219D31835
:103770009C4204D298426BD816D01B1ACBE6A342C7
:10378000FBD18B45F6D9231AC5E6994500D897E6B3
:10379000013F1B1994E6029ABA42E0D30299002332
:1037A000B9E6AF42B9D947E68F4251D80023B2E615
:1037B0000919013F58468C4219D9914200D012E7AD
:1037C000984200D00FE76CE73D4C049D631B382BFB
:1037D0001CDD019B00220026002711E7019B00222F
:1037E0002B40002600270BE701277F4259E78A423A
:1037F00003D800D0F7E69842E2D25D46680058450B
:10380000AD416D422C19013F0919D6E71F2B34DC5D
:10381000049C2C4A381CA518311CAF40D840A94044
:103820003C1C0143671EBC410F1C2743DE400F2395
:103830003B40042B05D03A1DBA42BF417D42761968
:10384000171C320211D5019B012200260027D7E662
:1038500059445945924152421219D318013E1B1A3C
:1038600059E6002BA4D10020AAE77007FF087102D7
:1038700007430E0B019B0022C2E61349049C301C37
:103880000A1BD040051C202B08D0104BE1188E409D
:1038900037437B1E9F412F430026C8E70026F7E7EA
:1038A00080221003064331030E0B019B034AA7E657
:1038B000FF030000FFFFFFFEFE070000FF07000000
:1038C00002FCFFFF1E040000E2FBFFFF3E040000BD
:1038D000F0B5944647461A03061C580080B4170BEF
:1038E000420D19480D034C00DB0F2D0B640DC90F61
:1038F0009846844208D0144882420DD00120944258
:1039000012D004BC9046F0BD2B1C33430120002B89
:10391000F7D10D488242F1D163463B430120002B91
:10392000EFD101209442ECD1BD42EAD16645E8D105
:10393000414506D0002CE4D1281C3043451EA84147
:10394000DFE70020DDE7C046FF070000F0B557467F
:103950004E464546E0B4041C4E000803C90F8A4693
:10396000171C59001A03050B700D160B4A0D304930
:10397000DB0F9C46884232D02D498A4235D0002840
:103980000FD1291C21434B424B419846002A0BD0B2
:10399000002B1AD1E2452CD05546002D18D101201C
:1039A00018E0002AF6D19046311C39434B424B4176
:1039B0004146002906D1002BECD056460120002EAE
:1039C00008D005E00020002B04D16746002FE6D187
:1039D000012358421CBC90469946A246F0BD2B1CC0
:1039E0002343C9D002214842F4E7331C3B43C6D0ED
:1039F000F8E7904205DC09DA5246002AE8D00120B7
:103A0000E8E75446002CE3D10120E3E7B542C3D8F0
:103A100007D00020B542DDD250460028D8D0012082
:103A2000D8E7BC42B8D80020BC42F5D3D2E7C046A4
:103A3000FF070000F0B544465F4656464D46F0B4D9
:103A40009446061C1A035800170B420D2E480D030E
:103A50004C00DB0F2D0B640DC90F9846844233D008
:103A60002948824236D0002C19D0002A20D1934612
:103A700063463B43584258415B468246002B1DD06B
:103A800051460020002904D14246002A14D10124C5
:103A900060423CBC90469946A246AB46F0BD2B1C0A
:103AA0003343584243419B46002AE1D0002BEBD1DF
:103AB000414515D00029EAD10120EAE70028F7D0D6
:103AC00001200029E5D0E2E72B1C33430220002B24
:103AD000DFD1C5E763463B430220002BD9D1C2E7C3
:103AE0009442E7DC05DBBD42E4D806D00020BD42AD
:103AF000CFD20029CBD00120CBE76645DAD8002011
:103B00006645F6D3C5E7C046FF070000F0B5564648
:103B100044465F464D46F0B44F001D1C0B03141C79
:103B20001A0B7B0D87B0061C92469846CF0F002BD0
:103B300021D1024300D149E15346002B00D1E4E1F9
:103B4000504600F039FF031E272B00DDD8E1083B6B
:103B50005146994028228846111A321CCA404146D3
:103B60000A4392469E40D84B0022181A00218046F4
:103B70009146039111E0D54883423ED080215346BF
:103B80004A031A43D000710F0843D14A82460023EA
:103B90000020F600904499460390291C201C251C07
:103BA0004A000C03CB0F240B520D9B4631D1211C34
:103BB000014300D112E1002C00D19DE1201C00F056
:103BC000FBFE272800DD91E1031C2822083B291C6D
:103BD000121A9C40D1400C439D40BB4B59461A1AC7
:103BE000794000204B46019103430F2B26D89900C2
:103BF000B84B8C46634419688F46111C314300D082
:103C0000DFE0082600200221B1468246002603910B
:103C1000C3E7AE48824200D1C9E080214B031C4378
:103C2000AB49680FE4000443ED00521800205946E8
:103C300079404B46019103430F2BD8D942443304BA
:103C4000290404921A0C0F0C101C7843360C331CF8
:103C500080462D0C7B43301C6843111C69439C46F5
:103C600043468346180C08186044844500D91FE178
:103C7000010C4346039119040B0C0004C0182104E5
:103C8000240C0590101C6243090C02924843321C1C
:103C900066434A43029BB146060C9046B4461A1C42
:103CA00062444244904502D9802673029944160C1E
:103CB000B046C14400044B46060C1204029393190B
:103CC00056463204100C021C6A439C46031C7B437C
:103CD0009146320C574398461B0C9A46D144B9443E
:103CE00055434F4502D980277E02AD194B461F0C24
:103CF0004646ED191F0433041E0C031C4B4360435E
:103D0000514354431A0C8018B046401847449A4611
:103D1000814202D980214E02A419039B1A1C6244DD
:103D20005A44624589414E425146B34603040E044B
:103D30009C460299330C6344CE18B046C246DA441E
:103D4000D219BA42BF4151467B426F18F9189946C1
:103D5000DA459B415E42029BB3469845B6417642A6
:103D60005B461E43000C49459B41AF42AD413618AE
:103D70006F425842384336180598341956020643A4
:103D8000CB0D6402701E8641D20D164349021C43BE
:103D90000E43E0012FD50127049D374073083E1CD8
:103DA000E00701351E4304950643640823E0231C05
:103DB0002B430320002B00D039E7002400250220EC
:103DC00035E70C22032391460393E6E604260023FD
:103DD0000120B1469A4600260390DEE60024002525
:103DE000012024E703985446022844D0032800D138
:103DF000EAE0012860D0049A37495018002800DC16
:103E000095E00F273740042F05D0311DB142B64150
:103E1000754264190E1CE10105D53048049A8023CF
:103E2000DF000440D0192E49884224DC019B65073D
:103E3000F6086402420501272E43240B520D1F4051
:103E400000200021090D0D052543264C12052C40AC
:103E500014436300301C5E08FF07311C394307B070
:103E60003CBC90469946A246AB46F0BD5A462E1C35
:103E700001920228BAD1019E01273740134A00243B
:103E80000026DDE7544601970398ADE70126002799
:103E9000154C76420D4AD3E72E1CA5E7802213036A
:103EA0005146194235D10B431D032C0B074AC7E776
:103EB00080214B029B44DBE6019B00221840C7B2E5
:103EC00000240026BCE7C0460DFCFFFFFF070000F2
:103ED00001FCFFFF84730008FF030000FFFFFFFEEB
:103EE000FE070000FFFF0F80FFFF0F00041C283CAF
:103EF000A5402C1C002570E600F05EFD203060E639
:103F0000283B9E40B24600262DE600F055FD2030AD
:103F100019E61C4206D11C432603340B5F462E1CB7
:103F20002E4A8DE70B431803040B2C4A88E72C4FCD
:103F3000049D7B1B382B06DD019E012737400022A4
:103F4000002400267CE71F2B21DC049A254F351C1A
:103F5000D119201C8E40DD408840321C2843561E5B
:103F6000B241061C1643DC400F233340042B05D01E
:103F7000371DB742B641714264183E1C250217D561
:103F8000019B01271F4001220024002658E7164804
:103F9000049A211C871AF9400D1C202B12D0134BB8
:103FA000D01884402643721E96412E430024DBE73E
:103FB000019A6507F6086002012717402E43040B9B
:103FC00000223DE70024EDE780210F033C430198E8
:103FD00024030127240B0740004A31E7FF070000B4
:103FE00002FCFFFF1E040000E2FBFFFF3E04000096
:103FF000F0B557464E464546E0B4071C0D034E004B
:10400000680ACC0F790F08438446111C18035A0024
:10401000FD00400ADF0F4B0F1843CA4BC900760D55
:10402000520D8A469A4200D1E0E001235F40B94632
:10403000BC4200D1A8E0B71A002F00DC10E1002A32
:1040400012D15246024300D1D4E0013F002F00D0EC
:1040500060E151466F1ABD42AD4162466B42101A93
:104060003D1CC31A371C24E0B64A964200D1E3E057
:1040700080210B041843382F00DD23E11F2F00DDC2
:1040800066E12021C91B021C53468A40FB401A43AB
:1040900053468B40191C4B1E9941031C0A43FB409D
:1040A000AA1A67469542AD41F81A6B42C31A151C0D
:1040B000371C1A0200D4C7E05E02710A88464246E5
:1040C000002A00D1F0E0404600F076FC021C083ADD
:1040D0001F2A00DDF1E02823181A2E1C4146C64095
:1040E0009140331C0B439540974200DDA9E0D01B63
:1040F000411C1F2900DD12E11F273A1A2E1C181C33
:10410000CE409040954030436A1E9541CB400543D8
:10411000012100270F262E40042E00D172E02E1D13
:10412000AE42AD41684280221B18012510041840A0
:104130002C40002807D0834FB94200D1B0E0824A1A
:104140000F1C13400131F20849055E073243DB08BA
:10415000480D012800DC79E01B0378051E0B470D94
:1041600000200021090D7D050B05784F1E43101C12
:1041700037406A0817437E007108E40721431CBCDE
:1041800090469946A246F0BDB31A002B00DCA6E08B
:10419000002A3ED06B4A96424ED080210F0438430D
:1041A000382B00DC18E15346184300270022002872
:1041B00000D001225219AA42AD4167446B42FB185C
:1041C000151C371C1E023FD55E487E1C864200D15E
:1041D0007BE15D4901222A400B406808151CD90784
:1041E00005430D435B08B91C371C93E7014300D11D
:1041F0001BE71CE7711C371C0F2663462E40042E5C
:1042000000D08CE7802201261004344018402E1C78
:104210008FE752460243EDD0013B002B09D15746B0
:104220007919A9429241554260444319371C0D1C2B
:10423000C8E744498E42B3D1802063460101371C50
:1042400068E7BF1A404A1340791C63E7151C1D43F9
:1042500000D121E2002F3ED0802631030B437BE7C3
:10426000002F00D086E0721C51054B0D012B00DCA5
:10427000F0E05746EA1B95429B416746391A5B427C
:10428000C91A88460B0200D49DE05446651BAA4516
:104290009241C01B5742C31B9846371C4C460EE741
:1042A0000F1C002600225BE7281C00F085FB203055
:1042B000021C083A1F2A00DC0DE7283885402B1C19
:1042C000002511E75746384300230022002800D17B
:1042D000E6E60122E4E61D032E0B002740E7002B53
:1042E00000D0D9E0771C79054A0D012A00DC95E061
:1042F000144B9F4200D1FEE051464919A942AD41FD
:1043000062466B428018C2184908D5070D4353080E
:10431000B11CFFE60B498E4200D0ACE68CE7061CD0
:104320001F3E1F1CF7403E1C202973D03F22101A4D
:1043300083401D436B1E9D4135430121002300270F
:10434000E8E6C046FF070000FFFF7FFFFFFF0F808A
:104350003B1C203B011CD9400B1C202F5CD0402271
:10436000D71BB840021C50460243511E8A411A43D3
:10437000002395E67F42002E40D0CA4CA24200D1D5
:104380001FE1802166460B041E43B446382F00DD32
:10439000A9E01F2F00DD3DE12023DE1B291C644620
:1043A000B440F940B5406B1E9D41214363460D4327
:1043B000FB4057467D1BC01AAA459B415F42C31B69
:1043C0004C46171C75E60D1C154320D10024012115
:1043D000002304260027B6E61F2B4ADC2021C91A39
:1043E000071C52468F40DA403A4357468F40391CEB
:1043F0004F1EB941D8400A43071CDBE664462C43F4
:1044000069D1511C031C5546171C4C4682E6151CED
:10441000371C54E600238CE70022A4E767462F43AD
:10442000002E00D0D4E0002F00D126E153460343F4
:1044300000D1E4E051464F19AF42AD4160446E42B5
:1044400083191E0200D44EE197483D1C034002210F
:1044500001275FE661462943002E29D1002976D144
:1044600051460143B2D0031C55464C46012100275A
:1044700050E61F1C203F011CF9400F1C202B00D1CF
:10448000C6E04022D31A9840021C50460243531EF5
:104490009A413A4300278DE65B42002E30D16746B1
:1044A0002F4300D0C8E0511C031C5546171C31E6B1
:1044B000002965D15746074300D1C8E0031C80207E
:1044C00055464C460101774F24E68023371C1901DD
:1044D0000426002337E6013F002F6ED15446614683
:1044E000651B401A68E767463D430023002D00D155
:1044F0005FE701255DE7802631010023042622E6DF
:1045000068498A4200D1C1E08027664639040E43DB
:10451000B446382B00DDA2E01F2B00DDD0E02021C7
:10452000C91A2E1C67468F408D40DE403E43291C31
:1045300067464D1EA941DF40351C0D433E1C5544C6
:1045400055459B4130185E428319171C3AE6564682
:10455000064354D05746EA1B63469542B641191AA2
:104560007342CB1A1E0200D4A2E07D1B6446AA450A
:10457000BF41001B7A42831A4C4601210027C9E53E
:10458000564606433FD0624680215707ED08D308C0
:104590000A033D43134208D0C608164205D15546CA
:1045A000EC0845072543331C4C46680FDB0080268A
:1045B0000343ED0031013B4FACE53A498A4200D05C
:1045C000E4E68026031C55464C463101171CA1E544
:1045D000002F4CD05346034315D062468026ED0889
:1045E0005107D30837030D433B42DED0C2083A429D
:1045F000DBD15546E9084507131C0D43D5E7634653
:104600000121002786E5802739016346254F81E592
:1046100000223AE73C1C203C6646E640331C202F33
:104620005FD04024E71B6646BE40311C0D43691E27
:104630008D411D430023BCE6013B002B22D1554494
:104640005545BF417B426044C318171CBAE5802121
:10465000042200240901154B5642124F73E56346AC
:104660001D430026002D00D169E7012567E7802260
:10467000031C554611010B4F4CE5031C5546012107
:10468000002747E507498A4200D042E78021031C02
:1046900055460901171C3DE57F057F0D00260022C8
:1046A0005EE5C046FF070000FFFF7FFFFFFF7F00C2
:1046B0001D1C154300D189E6151C0121002729E5A1
:1046C0001F1C203F6146F940202B10D04026F31AD2
:1046D00067469F403B1C1D436B1E9D410D430026BA
:1046E0002DE70021A2E73D1C0121002712E5002350
:1046F000F1E7C046F8B5041E2DD0C50F00D04442E6
:10470000201C00F059F916490A1A0A2816DD0B3840
:104710008440570526037A0D360B00270020002120
:10472000381C0F0D3B050F4C33431C40160534431A
:1047300061004A08ED07111C2943F8BD0B26011C36
:10474000301A1531231CC4408B40520521031F1C15
:104750000E0B520DE2E70025002200260027DDE7C0
:104760001E040000FFFF0F8070B5041E26D000F06D
:1047700023F914490A1A0A2813DD0B388440560518
:104780002403720D250B002600200021301C0E0D85
:1047900033050D4C2B4311051C400C436500690883
:1047A00070BD0B23051C181A1535211CC440A940E7
:1047B000520525030E1C2D0B520DE5E700220025A6
:1047C0000026E1E71E040000FFFF0F80410070B5E6
:1047D0000E0E731C4202C50FD8B2540A012815DD13
:1047E0006307E024A000120B341800200021181CDD
:1047F0000B0D1E051C4B324361054C08134023432F
:104800005A005608ED07311C294370BD002E16D101
:10481000002C1ED0201C00F0CFF80A281DDC0B2233
:10482000111A021C231C1532CB4094401E1C231C61
:1048300034030E4E220B301A41054C0DD5E7002CE7
:1048400003D06307120B0A4CCFE7094C0022002368
:10485000CBE7002400220023C7E7011C0B398C4062
:10486000261C0023E4E7C046FFFF0F8089030000F9
:10487000FF070000F0B5041C4800400D0A03CD0FEF
:10488000411C630F520A4F051A43E6007B0D012BB2
:104890003BDD42494318FE2B2CDC002B4EDDA401EE
:1048A000770FD200611E8C413D4E224380193A435E
:1048B0000F261640042E47D18027FC0414401DD03B
:1048C000FF2838D0374B1A40031C0130C6B2D2083B
:1048D000012E17DC002A06D0002B29D08027FC03EC
:1048E000224351024A0ADBB2DB051A43ED07101CD2
:1048F0002843F0BD802148000422FF23C6B2D2081D
:10490000012EE7DD51024A0AEDE7002806D13243C5
:104910000120002A15D104220023EFE71643E9D035
:104920008024A004D20080260243FF237000BFE74A
:104930005002420AD8E7FF230022D5E7173305DAF1
:10494000012005220023D9E70432B5E78023164F62
:1049500019040A433C1A1F2C0DDC1449331C471858
:10496000BE40301C461EB041BA40E34002431A43E9
:10497000012000239CE70E4B171C191ACF403B1C4B
:10498000202C09D00B4C001982403243561EB241F4
:104990001A43012000238BE70022F6E780FCFFFF8B
:1049A00081FCFFFFFFFFFFFB9E03000082FCFFFF77
:1049B0007E030000A2FCFFFF1C2101231B04984280
:1049C00001D3000C10391B0A984201D3000A0839A0
:1049D0001B09984201D30009043902A2105C401857
:1049E0007047C046040302020101010100000000FB
:1049F00000000000014B18687047C046B40000205A
:104A00000FB40B4B13B51C68002C05D0A06900280F
:104A100002D1201C01F00AFE05ABA168201C049AFB
:104A2000019300F039F816BC08BC04B01847C04622
:104A3000B400002038B50C4D041C286800280AD0AA
:104A40008369002B07D101F0F1FD04E002F052FA76
:104A5000431C08D001342868217882680029F5D1E8
:104A60000A2102F047FA38BDB4000020936810B55F
:104A7000013B9360002B05DA9469A34208DBCBB2BB
:104A80000A2B05D01468C8B221700134146001E00B
:104A900000F0B4FD10BD0000F0B5A1B0061C0491FB
:104AA000171C0793002804D08169002901D101F067
:104AB000BDFD804B049A9A4202D1726804920BE0C9
:104AC0007D48049C844201D1B36804E07B4D049985
:104AD000A94201D1F36804930498848922070AD576
:104AE0000569002D07D008AD00212023302269611F
:104AF0006B76AA7640E0301C049900F0DDFD0028BA
:104B0000F1D001204042D2E0079F3A68381D07905B
:104B1000002A00DA82E00B92013423782E2B00D198
:104B20008DE0674F2178381C032201F0D9FE002860
:104B300006D0C11B2B6840208840184328600134F0
:104B40002178604806222976671C01F0C9FE0028FA
:104B500000D199E05C4A002A00D08CE02A68079CCA
:104B60000723D10500D484E0E4189C43083407945B
:104B70000D9905980C180D943C1C2078002804D140
:104B8000E11B069118D003970EE02528F8D00134D8
:104B9000F3E70399301C0978049AFFF767FF039B3A
:104BA0000133039301307CD0039B069AD81B9042BB
:104BB000EFDB0D9FB9180D912378002B71D00122E6
:104BC000694600205742633101342860E8606F6015
:104BD000A8600870A8653D4F2178381C052201F0B7
:104BE0007FFE002807D02A68C71B0123BB40134360
:104BF0002B600134EFE72B68D90603D56A462020E5
:104C0000633210701A0703D56F462B216337397052
:104C100020782A2800D177E70B9B05E00227514234
:104C20003B43E9602B6077E72278303A092A04D8C1
:104C30000A214B4301349B18F6E70B936DE760782C
:104C40002A2809D1079B02341F68181D0790002FDE
:104C50000DDA012257420AE0013400272278303A67
:104C6000092A04D80A214F430134BF18F6E70997EF
:104C700057E7073479E707A90091301C291C049AEB
:104C8000134B00F0CDF807E007AC0094301C291C52
:104C9000049A0F4B00F098FB05900598421C00D039
:104CA00066E7049DAE89720600D52AE70D9821B00B
:104CB000F0BDC0462074000840740008607400080D
:104CC000D2730008D6730008214E0008CC73000888
:104CD0006D4A000800000000F0B58BB0171C1D1CC9
:104CE0001299149C04D580263306ED182D2200E07D
:104CF00000220A70662C0BD0462C09D0652C02D0FD
:104D00000222452C05D1109902220131109100E0B8
:104D10000322109E139B009208A909AA01960293F0
:104D2000049203913A1C2B1C00F0C6FD061C672C54
:104D300001D0472C02D11198C2072DD5109BF11834
:104D40000791662C01D0462C14D13478302C0CD12C
:104D5000381C291C154B144AFCF74CFF002804D1C1
:104D6000109A01201399831A0B60139C079A2068EC
:104D700013180793381C291C0C4B0B4AFCF73AFFFD
:104D8000002801D0079F0997099F079DAF4203D2D2
:104D900030223A700137F6E7099915988C1B0460A8
:104DA000301C0BB0F0BDC046000000000000000049
:104DB000F0B5831C027085B0061C0C1C2B22002948
:104DC00001DA4C422D2272701D1C092C1DDD6F462C
:104DD0000E37201C0A210197FCF7F0FE30313970A4
:104DE000201C0A21FCF794FE013F041E092CF0DC74
:104DF000019B3034013B1C7069460F318B4209D254
:104E00001A7801332A700135F6E73020241818701B
:104E10005C709D1CA81B05B0F0BD000000000000E8
:104E2000F0B593B00C1C0A920B93189D071C01F06F
:104E3000AFFC00680C9002F0F9F8002321680D9097
:104E40001093267E28680722C90501D5801800E046
:104E500007309043031C08332B6041680068A0644E
:104E6000E164A06CE16CFCF7CBFD01281BD1A06CC8
:104E7000E16CB04BAE4AFCF7C3FE002803D0211C06
:104E800043312D220A70472E02D8AB48099001E029
:104E9000AA4B099321680422032591430020256130
:104EA0002160089090E0A06CE16CFCF7A9FD2568FA
:104EB00000280ED1472E02D8A149099101E0A14A4C
:104EC000099204208543032325600025236108956A
:104ED0007AE06268511C01D1062106E0672E01D0FC
:104EE000472E03D1002A01D1012161608023D8001F
:104EF00005432560626801956D460FA910AB00203F
:104F00003B35039106900092029504960593381C58
:104F1000A26CE36CFFF7E0FE0F990990672E01D0B9
:104F2000472E06D1CB1C02DB626891422DDD023E8A
:104F3000F6B2652E12D8201C01395030321C0F9168
:104F4000FFF736FF109B0890C0182061012B02DC90
:104F50002268D3072FD5013020612CE0662E15D1B1
:104F60006568002908DD2161002D02D12268D20781
:104F70001DD50135491911E0002D03D12368012009
:104F8000034200D0A81C206111E06726109DA942B1
:104F900006DB22682161D20709D50131216106E0D3
:104FA0000120002901DC0223581A291821610F99D8
:104FB0000025A165089569463B310D78002D03D089
:104FC000231C43332D2018700B9D381C0095211C89
:104FD00011AA0A9B00F088F9013002D10124604235
:104FE0007CE1236859050ED4099E09992269701A3B
:104FF000904221DA3178381C0A9A0B9B9847013687
:105000000130F2D1EAE7652E00D8F6E0A06CE16C41
:10501000484B474AFCF7EEFD00282ED0381C3021C3
:105020000A9A0B9DA8470130D8D00F991098814259
:1050300007DB2268D30704D42568AB0700D54BE112
:1050400044E10C9E0D9BF518AE4208D03178381C17
:105050000A9A0B9B984701360130F5D1BEE700252F
:10506000109E013EB542E7DAA17E381C0A9A0B9BDE
:1050700098470130B2D00135F2E70F9900293ADCA8
:10508000381C30210A9A0B9B98470130A6D00F9804
:10509000002805D1109A002A02D12668F307CBD543
:1050A0000C9E0D9D7519AE4208D03178381C0A9AB5
:1050B0000B9B984701360130F5D18FE700260F99F9
:1050C0004B429E4208DAA17E381C0A9A0B9DA847E3
:1050D000013083D00136F2E7099D0998109A2E1A03
:1050E0009642A9DA2978381C0A9A0B9B9847013511
:1050F0000130F2D172E7A06D109E864200DD061CE1
:10510000002E02DC0020089029E0099D7219089207
:105110002978381C0A9A0B9B9847013000D15DE72B
:10512000089901358D42F3D1ECE7C046C046C04630
:105130000000000000000000DD730008E1730008BB
:10514000E5730008E9730008A17E381C0A9A0B9DDC
:10515000A847013000D141E7089901310891F24395
:10516000A56DD31708983340E91A8842ECDB0F9EEF
:10517000109A96420EDB2368DA070BD4109B099E27
:105180000F997619581A5D1B854200DD051C002D0C
:1051900010DC1DE00C9E0D9970180890089A96423C
:1051A000ECD03178381C0A9A0B9B984701360130B5
:1051B000F4D113E7721909923178381C0A9A0B9BC3
:1051C0009847013000D109E7099901368E42F3D1A1
:1051D000002608E0A17E381C0A9A0B9B98470130F4
:1051E00000D1FBE6013610980F9AEB43811AD817CD
:1051F00028400A1A9642EDDB1EE7099E109A317884
:10520000381C012A09DCDA0707D40A9A0B9DA84743
:10521000013000D1E2E6261C45E00A9A0B9B984734
:10522000013000D1DAE60C9E0D997518AE4208D017
:105230003178381C0A9A0B9B984701360130F5D11A
:10524000CCE6A06CE16C274B254AFCF7D3FC00268A
:10525000002818D1109A013A9642DCDA099A381CD3
:10526000931959780A9A0B9DA847013000D1B5E6E9
:105270000136EFE7A17E381C0A9A0B9DA847013042
:1052800000D1ABE60136109801388642F2DBC2E766
:10529000301C503001780A9A381C0B9DA847013603
:1052A000013000D19AE60899331B8B42F0DBC3E64C
:1052B000617E381C0A9A0B9DA847013000D18DE60B
:1052C0000136E3681199581A8642F1DB119FE068B4
:1052D000B84203DA381C01E00026F2E713B0F0BD53
:1052E0000000000000000000F7B5151C01930A69DA
:1052F0008B6800900C1C934200DA131C201C2B605E
:1053000043300178002901D001332B602668B006B4
:1053100002D52F6802372F602268062616401CD05F
:10532000261C4336377822683E1C731E9E41920627
:105330001CD5A319181C40303021271CC1704537DB
:105340003A784133DA70023610E0617E0098019AB3
:10535000089FB847013006D00136E3682868191A5B
:105360008E42F2DBDCE7012040422CE00027B7420E
:105370000ADAE119433109780098019A089B9847A5
:105380000130F0D00137F2E72B682568062129406B
:10539000E6680025042903D1F01AC743FD1705402C
:1053A000A2682669B24201DD931BED180027AF42C7
:1053B00008DAA17E0098019A089EB0470130D2D049
:1053C0000137F4E70020FEBDF0B50D1C8BB043356E
:1053D00007930590069204950A7E0C1C109B6E2A7A
:1053E00000D1A8E012D8632A24D009D8002A00D11D
:1053F000B1E0582A00D0C1E045310A707D4D51E03E
:10540000642A1FD0692A00D0B8E01BE0732A00D1BB
:10541000A5E009D86F2A2BD0702A00D0AEE00A6828
:10542000202616430E6038E0752A21D0782A00D055
:10543000A4E032E018680E1C051D1D6003684236AA
:1054400033709EE026681F68300606D4750604D5C2
:10545000381D186000203D5E02E03D1D1D603D6866
:10546000644B002D3BDA04992D226D420A7036E020
:1054700027681E683D0605D4780603D5351D1D60D6
:10548000358802E0311D196035685A4B207E039340
:1054900008276F281ED00A271CE0271C45377820D4
:1054A000554D38701A682668111D0395196030062D
:1054B00003D4750601D5158800E01568F00702D5FC
:1054C00020231E4326601027002D03D126682020AC
:1054D00086432660261C43360022327001E0039387
:1054E0000A276168A160002903DB20680423984330
:1054F0002060002D02D1049E00290ED0049E281C9D
:10550000391CFCF7FBFA039A013E515C281C3170F0
:10551000391CFCF7AFFA051EF1D1049B9A1B2261DE
:10552000082F33D12768F80730D5606890422DDC0A
:10553000013262602AE008681E684969050606D4DF
:10554000450604D5351D1D603368198003E0321D02
:105550001A603768396000202061049E16E01E68DA
:10556000311D19603668301C01F060FD65682061EE
:10557000A84200D925612369636004E0261C4236F5
:10558000327001212161049F00223A700799059829
:10559000009109AA211C069BFFF7A6FE01300CD042
:1055A000351C2269AB1B93420ADA29780598069AC2
:1055B000079FB84701350130F3D10122504217E06F
:1055C0002668B10705D4099BE068984210DA181CD8
:1055D0000EE00025E7680998391A8D42F3DA617EFA
:1055E0000598069A079EB0470130E6D00135F1E7ED
:1055F0000BB0F0BDED730008FE73000870B5051C1C
:105600000E1C141C002804D08169002901D101F06E
:105610000DF8264B9C4201D16C6808E02448844276
:1056200001D1AC6803E0234A944200D1EC68A1693F
:10563000A389A160190702D5206900280CD1281C74
:10564000211C00F039F8002806D0A68940210E431D
:10565000A68109242C600DE0216822696069F6B2F8
:105660008B1A834209DB281C211C00F0E1FE002379
:10567000984202D001256E4215E0A16822680139E6
:10568000A16016706069013201332260834204D048
:10569000A389D90707D50A2E05D1281C211C00F0A3
:1056A000C7FE0028E6D1301C70BDC046207400083B
:1056B000407400086074000870B5314D061C2868FD
:1056C0000C1C002804D08169002901D100F0AEFF34
:1056D0002C4B9C4202D129684C680AE02A4884423B
:1056E00002D12D68AC6804E0284A944201D12C68AC
:1056F000E468A3891A071ED4D90602D401214842BE
:105700003CE05A0713D5616B002908D0201C4430B7
:10571000814202D0301C00F0F3FF00226263A589B1
:10572000242120698D430023A58163602060A58921
:1057300008221543A581216900290BD1A389A02046
:10574000850080221D4091008D4203D0301C211C19
:1057500001F022F8A6890123334005D065690020B5
:105760006A42A060A26103E0B10700D46369A3604C
:1057700024690020844201D13206BFD470BDC046E6
:10578000B400002020740008407400086074000811
:10579000F0B50B690E1C016987B0051C0027994202
:1057A00000DA85E0321C5C1E033398001432291C99
:1057B000019214313218039151682818131D0131D8
:1057C00040680593FCF756F90090B8423CD0019A26
:1057D000039B944602970497614604318C46043932
:1057E00080C9009AB8B2504302990818390C009F3A
:1057F000020C794351180A0C1F680292049ABFB236
:10580000BF181A6880B2381A89B2170C7A1A0714AE
:10581000D2191114170480B2059A3843049101C3B8
:105820009445D9D9231D99006F1878683B1D00282D
:105830000AD1039A043B934201D82C6104E0196811
:105840000029FAD1013CF4E7281C311C01F078FA58
:1058500000282CDB009E039B013600960020019F50
:105860001A6840CF91B201970818B7B2C11B120C49
:10587000360C971B08143A181604101489B2019FAD
:10588000059A0E4340C39742E9D9231D98002E186C
:105890007168331D00290AD1039F043BBB4201D824
:1058A0002C6104E01A68002AFAD1013CF4E7009F59
:1058B000381C07B0F0BD0000F0B5446A9DB00990F7
:1058C000259D06920793002C08D1102000F0B4FF0C
:1058D00009994862446084600460C460099E736AE8
:1058E000196800290AD058680122824048608A60FD
:1058F000301C01F049F8746A00212160079E002ED7
:1059000005DA01208640C6402860079601E00023A2
:105910002B60079FBE4D3A1C2A40AA4218D1BD48B1
:10592000249B069C1860002C01D13D0301D0BA488D
:1059300000E0BA48269E002E01D100F075FDC17826
:10594000C21C002900D00532269F3A6000F06CFD91
:10595000069C079DA54BA44A201C291CFCF74AF96C
:1059600000280CD0249A269F01211160002F01D11C
:1059700000F057FDAA483860013800F055FD1BA91A
:105980001AAE01962B1C00910998221C01F05CFABA
:105990007B000B905E0D09D0201CA24C2903A24D68
:1059A0000B0B211C19437619002419E01A9C1B9833
:1059B0009E4D2618AE4208DB9D4B9E4D0698F4186E
:1059C000AA1BE0409740384304E09B4F0699BA1B5E
:1059D0009140081CFEF7C8FE984A013E8918012430
:1059E000834A844B1994FEF703FB834A834BFEF7EB
:1059F0008DF8834A834BFDF7DFF8071C301C0C1C25
:105A0000FEF778FE804A814BFEF780F8021C0B1CE3
:105A1000381C211CFDF7D0F8071C0D1C01F098FB69
:105A2000724B714A0890291C381CFCF7E9F80028D1
:105A30000DD00898FEF75EFE021C0B1C381C291CBA
:105A4000FCF7D8F8424242410898811A0891089C14
:105A500001231893162C11D8794DE700EA19106824
:105A60005168069A079BFCF7DFF8002805D00898D4
:105A7000002101380890189100E018901A9B9E1B95
:105A8000013E04D57442002704940C9702E00025DF
:105A90000C960495089A002A06DB0C9F1592BD18F7
:105AA00000220C950F9207E00499089800240B1A25
:105AB000464204930F9615942299092929D82298D1
:105AC0000124052802DD043822900024229802389F
:105AD000032828D801F032FB08110205012714978A
